{
  "_format": "hh-sol-artifact-1",
  "contractName": "ERC20Mod",
  "sourceName": "contracts/ERC20Mod.sol",
  "abi": [
    {
      "inputs": [
        {
          "internalType": "string",
          "name": "name_",
          "type": "string"
        },
        {
          "internalType": "string",
          "name": "symbol_",
          "type": "string"
        }
      ],
      "stateMutability": "nonpayable",
      "type": "constructor"
    },
    {
      "anonymous": false,
      "inputs": [
        {
          "indexed": true,
          "internalType": "address",
          "name": "owner",
          "type": "address"
        },
        {
          "indexed": true,
          "internalType": "address",
          "name": "spender",
          "type": "address"
        },
        {
          "indexed": false,
          "internalType": "uint256",
          "name": "value",
          "type": "uint256"
        }
      ],
      "name": "Approval",
      "type": "event"
    },
    {
      "anonymous": false,
      "inputs": [
        {
          "indexed": true,
          "internalType": "address",
          "name": "from",
          "type": "address"
        },
        {
          "indexed": true,
          "internalType": "address",
          "name": "to",
          "type": "address"
        },
        {
          "indexed": false,
          "internalType": "uint256",
          "name": "value",
          "type": "uint256"
        }
      ],
      "name": "Transfer",
      "type": "event"
    },
    {
      "inputs": [
        {
          "internalType": "uint256",
          "name": "amount",
          "type": "uint256"
        }
      ],
      "name": "_calcFee",
      "outputs": [
        {
          "internalType": "uint256",
          "name": "",
          "type": "uint256"
        }
      ],
      "stateMutability": "nonpayable",
      "type": "function"
    },
    {
      "inputs": [
        {
          "internalType": "uint256",
          "name": "amount",
          "type": "uint256"
        },
        {
          "internalType": "uint256",
          "name": "fee",
          "type": "uint256"
        }
      ],
      "name": "_calcTransfer",
      "outputs": [
        {
          "internalType": "uint256",
          "name": "",
          "type": "uint256"
        }
      ],
      "stateMutability": "nonpayable",
      "type": "function"
    },
    {
      "inputs": [
        {
          "internalType": "address",
          "name": "owner",
          "type": "address"
        },
        {
          "internalType": "address",
          "name": "spender",
          "type": "address"
        }
      ],
      "name": "allowance",
      "outputs": [
        {
          "internalType": "uint256",
          "name": "",
          "type": "uint256"
        }
      ],
      "stateMutability": "view",
      "type": "function"
    },
    {
      "inputs": [
        {
          "internalType": "address",
          "name": "spender",
          "type": "address"
        },
        {
          "internalType": "uint256",
          "name": "amount",
          "type": "uint256"
        }
      ],
      "name": "approve",
      "outputs": [
        {
          "internalType": "bool",
          "name": "",
          "type": "bool"
        }
      ],
      "stateMutability": "nonpayable",
      "type": "function"
    },
    {
      "inputs": [
        {
          "internalType": "address",
          "name": "account",
          "type": "address"
        }
      ],
      "name": "balanceOf",
      "outputs": [
        {
          "internalType": "uint256",
          "name": "",
          "type": "uint256"
        }
      ],
      "stateMutability": "view",
      "type": "function"
    },
    {
      "inputs": [],
      "name": "decimals",
      "outputs": [
        {
          "internalType": "uint8",
          "name": "",
          "type": "uint8"
        }
      ],
      "stateMutability": "view",
      "type": "function"
    },
    {
      "inputs": [
        {
          "internalType": "address",
          "name": "spender",
          "type": "address"
        },
        {
          "internalType": "uint256",
          "name": "subtractedValue",
          "type": "uint256"
        }
      ],
      "name": "decreaseAllowance",
      "outputs": [
        {
          "internalType": "bool",
          "name": "",
          "type": "bool"
        }
      ],
      "stateMutability": "nonpayable",
      "type": "function"
    },
    {
      "inputs": [
        {
          "internalType": "address",
          "name": "spender",
          "type": "address"
        },
        {
          "internalType": "uint256",
          "name": "addedValue",
          "type": "uint256"
        }
      ],
      "name": "increaseAllowance",
      "outputs": [
        {
          "internalType": "bool",
          "name": "",
          "type": "bool"
        }
      ],
      "stateMutability": "nonpayable",
      "type": "function"
    },
    {
      "inputs": [],
      "name": "name",
      "outputs": [
        {
          "internalType": "string",
          "name": "",
          "type": "string"
        }
      ],
      "stateMutability": "view",
      "type": "function"
    },
    {
      "inputs": [],
      "name": "symbol",
      "outputs": [
        {
          "internalType": "string",
          "name": "",
          "type": "string"
        }
      ],
      "stateMutability": "view",
      "type": "function"
    },
    {
      "inputs": [],
      "name": "totalSupply",
      "outputs": [
        {
          "internalType": "uint256",
          "name": "",
          "type": "uint256"
        }
      ],
      "stateMutability": "view",
      "type": "function"
    },
    {
      "inputs": [
        {
          "internalType": "address",
          "name": "to",
          "type": "address"
        },
        {
          "internalType": "uint256",
          "name": "amount",
          "type": "uint256"
        }
      ],
      "name": "transfer",
      "outputs": [
        {
          "internalType": "bool",
          "name": "",
          "type": "bool"
        }
      ],
      "stateMutability": "nonpayable",
      "type": "function"
    },
    {
      "inputs": [
        {
          "internalType": "address",
          "name": "from",
          "type": "address"
        },
        {
          "internalType": "address",
          "name": "to",
          "type": "address"
        },
        {
          "internalType": "uint256",
          "name": "amount",
          "type": "uint256"
        }
      ],
      "name": "transferFrom",
      "outputs": [
        {
          "internalType": "bool",
          "name": "",
          "type": "bool"
        }
      ],
      "stateMutability": "nonpayable",
      "type": "function"
    }
  ],
  "bytecode": "0x608060405260326005553480156200001657600080fd5b50604051620018e6380380620018e683398181016040528101906200003c9190620002c3565b81600390805190602001906200005492919062000076565b5080600490805190602001906200006d92919062000076565b505050620003ad565b828054620000849062000377565b90600052602060002090601f016020900481019282620000a85760008555620000f4565b82601f10620000c357805160ff1916838001178555620000f4565b82800160010185558215620000f4579182015b82811115620000f3578251825591602001919060010190620000d6565b5b50905062000103919062000107565b5090565b5b808211156200012257600081600090555060010162000108565b5090565b6000604051905090565b600080fd5b600080fd5b600080fd5b600080fd5b6000601f19601f8301169050919050565b7f4e487b7100000000000000000000000000000000000000000000000000000000600052604160045260246000fd5b6200018f8262000144565b810181811067ffffffffffffffff82111715620001b157620001b062000155565b5b80604052505050565b6000620001c662000126565b9050620001d4828262000184565b919050565b600067ffffffffffffffff821115620001f757620001f662000155565b5b620002028262000144565b9050602081019050919050565b60005b838110156200022f57808201518184015260208101905062000212565b838111156200023f576000848401525b50505050565b60006200025c6200025684620001d9565b620001ba565b9050828152602081018484840111156200027b576200027a6200013f565b5b620002888482856200020f565b509392505050565b600082601f830112620002a857620002a76200013a565b5b8151620002ba84826020860162000245565b91505092915050565b60008060408385031215620002dd57620002dc62000130565b5b600083015167ffffffffffffffff811115620002fe57620002fd62000135565b5b6200030c8582860162000290565b925050602083015167ffffffffffffffff81111562000330576200032f62000135565b5b6200033e8582860162000290565b9150509250929050565b7f4e487b7100000000000000000000000000000000000000000000000000000000600052602260045260246000fd5b600060028204905060018216806200039057607f821691505b60208210811415620003a757620003a662000348565b5b50919050565b61152980620003bd6000396000f3fe608060405234801561001057600080fd5b50600436106100cf5760003560e01c8063395093511161008c57806395d89b411161006657806395d89b411461024e578063a457c2d71461026c578063a9059cbb1461029c578063dd62ed3e146102cc576100cf565b806339509351146101be57806347de2ef6146101ee57806370a082311461021e576100cf565b806306fdde03146100d4578063095ea7b3146100f257806318160ddd1461012257806323b872dd146101405780632ccd8fde14610170578063313ce567146101a0575b600080fd5b6100dc6102fc565b6040516100e99190610c88565b60405180910390f35b61010c60048036038101906101079190610d43565b61038e565b6040516101199190610d9e565b60405180910390f35b61012a6103b1565b6040516101379190610dc8565b60405180910390f35b61015a60048036038101906101559190610de3565b6103bb565b6040516101679190610d9e565b60405180910390f35b61018a60048036038101906101859190610e36565b6103ea565b6040516101979190610dc8565b60405180910390f35b6101a8610400565b6040516101b59190610e92565b60405180910390f35b6101d860048036038101906101d39190610d43565b610409565b6040516101e59190610d9e565b60405180910390f35b61020860048036038101906102039190610ead565b610440565b6040516102159190610dc8565b60405180910390f35b61023860048036038101906102339190610eda565b610463565b6040516102459190610dc8565b60405180910390f35b6102566104ab565b6040516102639190610c88565b60405180910390f35b61028660048036038101906102819190610d43565b61053d565b6040516102939190610d9e565b60405180910390f35b6102b660048036038101906102b19190610d43565b6105b4565b6040516102c39190610d9e565b60405180910390f35b6102e660048036038101906102e19190610f07565b6105d7565b6040516102f39190610dc8565b60405180910390f35b60606003805461030b90610f76565b80601f016020809104026020016040519081016040528092919081815260200182805461033790610f76565b80156103845780601f1061035957610100808354040283529160200191610384565b820191906000526020600020905b81548152906001019060200180831161036757829003601f168201915b5050505050905090565b60008061039961065e565b90506103a6818585610666565b600191505092915050565b6000600254905090565b6000806103c661065e565b90506103d3858285610831565b6103de8585856108bd565b60019150509392505050565b600081836103f89190610fd7565b905092915050565b60006012905090565b60008061041461065e565b905061043581858561042685896105d7565b610430919061100b565b610666565b600191505092915050565b60006064600554836104529190611061565b61045c91906110ea565b9050919050565b60008060008373ffffffffffffffffffffffffffffffffffffffff1673ffffffffffffffffffffffffffffffffffffffff168152602001908152602001600020549050919050565b6060600480546104ba90610f76565b80601f01602080910402602001604051908101604052809291908181526020018280546104e690610f76565b80156105335780601f1061050857610100808354040283529160200191610533565b820191906000526020600020905b81548152906001019060200180831161051657829003601f168201915b5050505050905090565b60008061054861065e565b9050600061055682866105d7565b90508381101561059b576040517f08c379a00000000000000000000000000000000000000000000000000000000081526004016105929061118d565b60405180910390fd5b6105a88286868403610666565b60019250505092915050565b6000806105bf61065e565b90506105cc8185856108bd565b600191505092915050565b6000600160008473ffffffffffffffffffffffffffffffffffffffff1673ffffffffffffffffffffffffffffffffffffffff16815260200190815260200160002060008373ffffffffffffffffffffffffffffffffffffffff1673ffffffffffffffffffffffffffffffffffffffff16815260200190815260200160002054905092915050565b600033905090565b600073ffffffffffffffffffffffffffffffffffffffff168373ffffffffffffffffffffffffffffffffffffffff1614156106d6576040517f08c379a00000000000000000000000000000000000000000000000000000000081526004016106cd9061121f565b60405180910390fd5b600073ffffffffffffffffffffffffffffffffffffffff168273ffffffffffffffffffffffffffffffffffffffff161415610746576040517f08c379a000000000000000000000000000000000000000000000000000000000815260040161073d906112b1565b60405180910390fd5b80600160008573ffffffffffffffffffffffffffffffffffffffff1673ffffffffffffffffffffffffffffffffffffffff16815260200190815260200160002060008473ffffffffffffffffffffffffffffffffffffffff1673ffffffffffffffffffffffffffffffffffffffff168152602001908152602001600020819055508173ffffffffffffffffffffffffffffffffffffffff168373ffffffffffffffffffffffffffffffffffffffff167f8c5be1e5ebec7d5bd14f71427d1e84f3dd0314c0f7b2291e5b200ac8c7c3b925836040516108249190610dc8565b60405180910390a3505050565b600061083d84846105d7565b90507fffffffffffffffffffffffffffffffffffffffffffffffffffffffffffffffff81146108b757818110156108a9576040517f08c379a00000000000000000000000000000000000000000000000000000000081526004016108a09061131d565b60405180910390fd5b6108b68484848403610666565b5b50505050565b600073ffffffffffffffffffffffffffffffffffffffff168373ffffffffffffffffffffffffffffffffffffffff16141561092d576040517f08c379a0000000000000000000000000000000000000000000000000000000008152600401610924906113af565b60405180910390fd5b600073ffffffffffffffffffffffffffffffffffffffff168273ffffffffffffffffffffffffffffffffffffffff16141561099d576040517f08c379a000000000000000000000000000000000000000000000000000000000815260040161099490611441565b60405180910390fd5b6109a8838383610be5565b60008060008573ffffffffffffffffffffffffffffffffffffffff1673ffffffffffffffffffffffffffffffffffffffff16815260200190815260200160002054905081811015610a2e576040517f08c379a0000000000000000000000000000000000000000000000000000000008152600401610a25906114d3565b60405180910390fd5b6000610a3983610440565b90506000610a4784836103ea565b90508083036000808873ffffffffffffffffffffffffffffffffffffffff1673ffffffffffffffffffffffffffffffffffffffff16815260200190815260200160002081905550806000808773ffffffffffffffffffffffffffffffffffffffff1673ffffffffffffffffffffffffffffffffffffffff16815260200190815260200160002060008282540192505081905550816000808873ffffffffffffffffffffffffffffffffffffffff1673ffffffffffffffffffffffffffffffffffffffff16815260200190815260200160002054036000808873ffffffffffffffffffffffffffffffffffffffff1673ffffffffffffffffffffffffffffffffffffffff16815260200190815260200160002081905550816002600082825403925050819055508473ffffffffffffffffffffffffffffffffffffffff168673ffffffffffffffffffffffffffffffffffffffff167fddf252ad1be2c89b69c2b068fc378daa952ba7f163c4a11628f55a4df523b3ef86604051610bca9190610dc8565b60405180910390a3610bdd868686610bea565b505050505050565b505050565b505050565b600081519050919050565b600082825260208201905092915050565b60005b83811015610c29578082015181840152602081019050610c0e565b83811115610c38576000848401525b50505050565b6000601f19601f8301169050919050565b6000610c5a82610bef565b610c648185610bfa565b9350610c74818560208601610c0b565b610c7d81610c3e565b840191505092915050565b60006020820190508181036000830152610ca28184610c4f565b905092915050565b600080fd5b600073ffffffffffffffffffffffffffffffffffffffff82169050919050565b6000610cda82610caf565b9050919050565b610cea81610ccf565b8114610cf557600080fd5b50565b600081359050610d0781610ce1565b92915050565b6000819050919050565b610d2081610d0d565b8114610d2b57600080fd5b50565b600081359050610d3d81610d17565b92915050565b60008060408385031215610d5a57610d59610caa565b5b6000610d6885828601610cf8565b9250506020610d7985828601610d2e565b9150509250929050565b60008115159050919050565b610d9881610d83565b82525050565b6000602082019050610db36000830184610d8f565b92915050565b610dc281610d0d565b82525050565b6000602082019050610ddd6000830184610db9565b92915050565b600080600060608486031215610dfc57610dfb610caa565b5b6000610e0a86828701610cf8565b9350506020610e1b86828701610cf8565b9250506040610e2c86828701610d2e565b9150509250925092565b60008060408385031215610e4d57610e4c610caa565b5b6000610e5b85828601610d2e565b9250506020610e6c85828601610d2e565b9150509250929050565b600060ff82169050919050565b610e8c81610e76565b82525050565b6000602082019050610ea76000830184610e83565b92915050565b600060208284031215610ec357610ec2610caa565b5b6000610ed184828501610d2e565b91505092915050565b600060208284031215610ef057610eef610caa565b5b6000610efe84828501610cf8565b91505092915050565b60008060408385031215610f1e57610f1d610caa565b5b6000610f2c85828601610cf8565b9250506020610f3d85828601610cf8565b9150509250929050565b7f4e487b7100000000000000000000000000000000000000000000000000000000600052602260045260246000fd5b60006002820490506001821680610f8e57607f821691505b60208210811415610fa257610fa1610f47565b5b50919050565b7f4e487b7100000000000000000000000000000000000000000000000000000000600052601160045260246000fd5b6000610fe282610d0d565b9150610fed83610d0d565b92508282101561100057610fff610fa8565b5b828203905092915050565b600061101682610d0d565b915061102183610d0d565b9250827fffffffffffffffffffffffffffffffffffffffffffffffffffffffffffffffff0382111561105657611055610fa8565b5b828201905092915050565b600061106c82610d0d565b915061107783610d0d565b9250817fffffffffffffffffffffffffffffffffffffffffffffffffffffffffffffffff04831182151516156110b0576110af610fa8565b5b828202905092915050565b7f4e487b7100000000000000000000000000000000000000000000000000000000600052601260045260246000fd5b60006110f582610d0d565b915061110083610d0d565b9250826111105761110f6110bb565b5b828204905092915050565b7f45524332303a2064656372656173656420616c6c6f77616e63652062656c6f7760008201527f207a65726f000000000000000000000000000000000000000000000000000000602082015250565b6000611177602583610bfa565b91506111828261111b565b604082019050919050565b600060208201905081810360008301526111a68161116a565b9050919050565b7f45524332303a20617070726f76652066726f6d20746865207a65726f2061646460008201527f7265737300000000000000000000000000000000000000000000000000000000602082015250565b6000611209602483610bfa565b9150611214826111ad565b604082019050919050565b60006020820190508181036000830152611238816111fc565b9050919050565b7f45524332303a20617070726f766520746f20746865207a65726f20616464726560008201527f7373000000000000000000000000000000000000000000000000000000000000602082015250565b600061129b602283610bfa565b91506112a68261123f565b604082019050919050565b600060208201905081810360008301526112ca8161128e565b9050919050565b7f45524332303a20696e73756666696369656e7420616c6c6f77616e6365000000600082015250565b6000611307601d83610bfa565b9150611312826112d1565b602082019050919050565b60006020820190508181036000830152611336816112fa565b9050919050565b7f45524332303a207472616e736665722066726f6d20746865207a65726f20616460008201527f6472657373000000000000000000000000000000000000000000000000000000602082015250565b6000611399602583610bfa565b91506113a48261133d565b604082019050919050565b600060208201905081810360008301526113c88161138c565b9050919050565b7f45524332303a207472616e7366657220746f20746865207a65726f206164647260008201527f6573730000000000000000000000000000000000000000000000000000000000602082015250565b600061142b602383610bfa565b9150611436826113cf565b604082019050919050565b6000602082019050818103600083015261145a8161141e565b9050919050565b7f45524332303a207472616e7366657220616d6f756e742065786365656473206260008201527f616c616e63650000000000000000000000000000000000000000000000000000602082015250565b60006114bd602683610bfa565b91506114c882611461565b604082019050919050565b600060208201905081810360008301526114ec816114b0565b905091905056fea264697066735822122034d4b10a4d073eccabe977c2addf47e8d6e3e71695782ff3773f8bbd7f80cbff64736f6c63430008090033",
  "linkReferences": {},
  "deployedLinkReferences": {}
}